{
  "_format": "hh-sol-artifact-1",
  "contractName": "UnERC20Proxy",
  "sourceName": "contracts/UnERC20Proxy.sol",
  "abi": [
    {
      "inputs": [
        {
          "internalType": "address",
          "name": "_logic",
          "type": "address"
        },
        {
          "internalType": "bytes",
          "name": "_data",
          "type": "bytes"
        }
      ],
      "stateMutability": "nonpayable",
      "type": "constructor"
    },
    {
      "anonymous": false,
      "inputs": [
        {
          "indexed": false,
          "internalType": "address",
          "name": "previousAdmin",
          "type": "address"
        },
        {
          "indexed": false,
          "internalType": "address",
          "name": "newAdmin",
          "type": "address"
        }
      ],
      "name": "AdminChanged",
      "type": "event"
    },
    {
      "anonymous": false,
      "inputs": [
        {
          "indexed": true,
          "internalType": "address",
          "name": "beacon",
          "type": "address"
        }
      ],
      "name": "BeaconUpgraded",
      "type": "event"
    },
    {
      "anonymous": false,
      "inputs": [
        {
          "indexed": true,
          "internalType": "address",
          "name": "implementation",
          "type": "address"
        }
      ],
      "name": "Upgraded",
      "type": "event"
    },
    {
      "stateMutability": "payable",
      "type": "fallback"
    },
    {
      "inputs": [],
      "name": "getImplementation",
      "outputs": [
        {
          "internalType": "address",
          "name": "",
          "type": "address"
        }
      ],
      "stateMutability": "view",
      "type": "function"
    },
    {
      "inputs": [
        {
          "internalType": "address",
          "name": "newImplementation",
          "type": "address"
        }
      ],
      "name": "upgradeTo",
      "outputs": [],
      "stateMutability": "nonpayable",
      "type": "function"
    },
    {
      "stateMutability": "payable",
      "type": "receive"
    }
  ],
  "bytecode": "0x60806040523480156200001157600080fd5b506040516200104438038062001044833981810160405281019062000037919062000491565b818160017f360894a13ba1a3210667c828492db98dca3e2076cc3735a920a3ca505d382bbd60001c6200006b9190620006c3565b60001b7f360894a13ba1a3210667c828492db98dca3e2076cc3735a920a3ca505d382bbc60001b14620000c7577f4e487b7100000000000000000000000000000000000000000000000000000000600052600160045260246000fd5b620000db82826000620000e560201b60201c565b50505050620008cf565b620000f6836200012860201b60201c565b600082511180620001045750805b1562000123576200012183836200017f60201b620000cf1760201c565b505b505050565b6200013981620001b560201b60201c565b8073ffffffffffffffffffffffffffffffffffffffff167fbc7cd75a20ee27fd9adebab32041f755214dbc6bffa90cc0225b39da2e5c2d3b60405160405180910390a250565b6060620001ad83836040518060600160405280602781526020016200101d602791396200028b60201b60201c565b905092915050565b620001cb816200036f60201b620000fc1760201c565b6200020d576040517f08c379a00000000000000000000000000000000000000000000000000000000081526004016200020490620005ee565b60405180910390fd5b80620002477f360894a13ba1a3210667c828492db98dca3e2076cc3735a920a3ca505d382bbc60001b6200039260201b6200011f1760201c565b60000160006101000a81548173ffffffffffffffffffffffffffffffffffffffff021916908373ffffffffffffffffffffffffffffffffffffffff16021790555050565b60606200029e846200036f60201b60201c565b620002e0576040517f08c379a0000000000000000000000000000000000000000000000000000000008152600401620002d79062000610565b60405180910390fd5b6000808573ffffffffffffffffffffffffffffffffffffffff16856040516200030a9190620005b1565b600060405180830381855af49150503d806000811462000347576040519150601f19603f3d011682016040523d82523d6000602084013e6200034c565b606091505b5091509150620003648282866200039c60201b60201c565b925050509392505050565b6000808273ffffffffffffffffffffffffffffffffffffffff163b119050919050565b6000819050919050565b60608315620003ae5782905062000401565b600083511115620003c25782518084602001fd5b816040517f08c379a0000000000000000000000000000000000000000000000000000000008152600401620003f89190620005ca565b60405180910390fd5b9392505050565b60006200041f62000419846200065b565b62000632565b9050828152602081018484840111156200043857600080fd5b620004458482856200073c565b509392505050565b6000815190506200045e81620008b5565b92915050565b600082601f8301126200047657600080fd5b81516200048884826020860162000408565b91505092915050565b60008060408385031215620004a557600080fd5b6000620004b5858286016200044d565b925050602083015167ffffffffffffffff811115620004d357600080fd5b620004e18582860162000464565b9150509250929050565b6000620004f88262000691565b620005048185620006a7565b9350620005168185602086016200073c565b80840191505092915050565b60006200052f826200069c565b6200053b8185620006b2565b93506200054d8185602086016200073c565b620005588162000806565b840191505092915050565b600062000572602d83620006b2565b91506200057f8262000817565b604082019050919050565b600062000599602683620006b2565b9150620005a68262000866565b604082019050919050565b6000620005bf8284620004eb565b915081905092915050565b60006020820190508181036000830152620005e6818462000522565b905092915050565b60006020820190508181036000830152620006098162000563565b9050919050565b600060208201905081810360008301526200062b816200058a565b9050919050565b60006200063e62000651565b90506200064c828262000772565b919050565b6000604051905090565b600067ffffffffffffffff821115620006795762000678620007d7565b5b620006848262000806565b9050602081019050919050565b600081519050919050565b600081519050919050565b600081905092915050565b600082825260208201905092915050565b6000620006d08262000732565b9150620006dd8362000732565b925082821015620006f357620006f2620007a8565b5b828203905092915050565b60006200070b8262000712565b9050919050565b600073ffffffffffffffffffffffffffffffffffffffff82169050919050565b6000819050919050565b60005b838110156200075c5780820151818401526020810190506200073f565b838111156200076c576000848401525b50505050565b6200077d8262000806565b810181811067ffffffffffffffff821117156200079f576200079e620007d7565b5b80604052505050565b7f4e487b7100000000000000000000000000000000000000000000000000000000600052601160045260246000fd5b7f4e487b7100000000000000000000000000000000000000000000000000000000600052604160045260246000fd5b6000601f19601f8301169050919050565b7f455243313936373a206e657720696d706c656d656e746174696f6e206973206e60008201527f6f74206120636f6e747261637400000000000000000000000000000000000000602082015250565b7f416464726573733a2064656c65676174652063616c6c20746f206e6f6e2d636f60008201527f6e74726163740000000000000000000000000000000000000000000000000000602082015250565b620008c081620006fe565b8114620008cc57600080fd5b50565b61073e80620008df6000396000f3fe60806040526004361061002d5760003560e01c80633659cfe614610046578063aaf10f421461006f5761003c565b3661003c5761003a61009a565b005b61004461009a565b005b34801561005257600080fd5b5061006d60048036038101906100689190610408565b6100b4565b005b34801561007b57600080fd5b506100846100c0565b6040516100919190610507565b60405180910390f35b6100a2610129565b6100b26100ad61012b565b61013a565b565b6100bd81610160565b50565b60006100ca61012b565b905090565b60606100f483836040518060600160405280602781526020016106e2602791396101af565b905092915050565b6000808273ffffffffffffffffffffffffffffffffffffffff163b119050919050565b6000819050919050565b565b600061013561027c565b905090565b3660008037600080366000845af43d6000803e806000811461015b573d6000f35b3d6000fd5b610169816102d3565b8073ffffffffffffffffffffffffffffffffffffffff167fbc7cd75a20ee27fd9adebab32041f755214dbc6bffa90cc0225b39da2e5c2d3b60405160405180910390a250565b60606101ba846100fc565b6101f9576040517f08c379a00000000000000000000000000000000000000000000000000000000081526004016101f090610564565b60405180910390fd5b6000808573ffffffffffffffffffffffffffffffffffffffff168560405161022191906104f0565b600060405180830381855af49150503d806000811461025c576040519150601f19603f3d011682016040523d82523d6000602084013e610261565b606091505b509150915061027182828661038c565b925050509392505050565b60006102aa7f360894a13ba1a3210667c828492db98dca3e2076cc3735a920a3ca505d382bbc60001b61011f565b60000160009054906101000a900473ffffffffffffffffffffffffffffffffffffffff16905090565b6102dc816100fc565b61031b576040517f08c379a000000000000000000000000000000000000000000000000000000000815260040161031290610544565b60405180910390fd5b806103487f360894a13ba1a3210667c828492db98dca3e2076cc3735a920a3ca505d382bbc60001b61011f565b60000160006101000a81548173ffffffffffffffffffffffffffffffffffffffff021916908373ffffffffffffffffffffffffffffffffffffffff16021790555050565b6060831561039c578290506103ec565b6000835111156103af5782518084602001fd5b816040517f08c379a00000000000000000000000000000000000000000000000000000000081526004016103e39190610522565b60405180910390fd5b9392505050565b600081359050610402816106ca565b92915050565b60006020828403121561041a57600080fd5b6000610428848285016103f3565b91505092915050565b61043a816105b6565b82525050565b600061044b82610584565b610455818561059a565b93506104658185602086016105e8565b80840191505092915050565b600061047c8261058f565b61048681856105a5565b93506104968185602086016105e8565b61049f8161061b565b840191505092915050565b60006104b7602d836105a5565b91506104c28261062c565b604082019050919050565b60006104da6026836105a5565b91506104e58261067b565b604082019050919050565b60006104fc8284610440565b915081905092915050565b600060208201905061051c6000830184610431565b92915050565b6000602082019050818103600083015261053c8184610471565b905092915050565b6000602082019050818103600083015261055d816104aa565b9050919050565b6000602082019050818103600083015261057d816104cd565b9050919050565b600081519050919050565b600081519050919050565b600081905092915050565b600082825260208201905092915050565b60006105c1826105c8565b9050919050565b600073ffffffffffffffffffffffffffffffffffffffff82169050919050565b60005b838110156106065780820151818401526020810190506105eb565b83811115610615576000848401525b50505050565b6000601f19601f8301169050919050565b7f455243313936373a206e657720696d706c656d656e746174696f6e206973206e60008201527f6f74206120636f6e747261637400000000000000000000000000000000000000602082015250565b7f416464726573733a2064656c65676174652063616c6c20746f206e6f6e2d636f60008201527f6e74726163740000000000000000000000000000000000000000000000000000602082015250565b6106d3816105b6565b81146106de57600080fd5b5056fe416464726573733a206c6f772d6c6576656c2064656c65676174652063616c6c206661696c6564a264697066735822122030cfc04ceed6f903db8adb049328258390931bc147f55a83c0ee8bb3d65233db64736f6c63430008040033416464726573733a206c6f772d6c6576656c2064656c65676174652063616c6c206661696c6564",
  "linkReferences": {},
  "deployedLinkReferences": {}
}