{
  "_format": "hh-sol-artifact-1",
  "contractName": "MockAggregatorValidator",
  "sourceName": "@chainlink/contracts/src/v0.8/tests/MockAggregatorValidator.sol",
  "abi": [
    {
      "inputs": [
        {
          "internalType": "uint8",
          "name": "id_",
          "type": "uint8"
        }
      ],
      "stateMutability": "nonpayable",
      "type": "constructor"
    },
    {
      "anonymous": false,
      "inputs": [
        {
          "indexed": false,
          "internalType": "uint8",
          "name": "id",
          "type": "uint8"
        },
        {
          "indexed": false,
          "internalType": "uint256",
          "name": "previousRoundId",
          "type": "uint256"
        },
        {
          "indexed": false,
          "internalType": "int256",
          "name": "previousAnswer",
          "type": "int256"
        },
        {
          "indexed": false,
          "internalType": "uint256",
          "name": "currentRoundId",
          "type": "uint256"
        },
        {
          "indexed": false,
          "internalType": "int256",
          "name": "currentAnswer",
          "type": "int256"
        }
      ],
      "name": "ValidateCalled",
      "type": "event"
    },
    {
      "inputs": [
        {
          "internalType": "uint256",
          "name": "previousRoundId",
          "type": "uint256"
        },
        {
          "internalType": "int256",
          "name": "previousAnswer",
          "type": "int256"
        },
        {
          "internalType": "uint256",
          "name": "currentRoundId",
          "type": "uint256"
        },
        {
          "internalType": "int256",
          "name": "currentAnswer",
          "type": "int256"
        }
      ],
      "name": "validate",
      "outputs": [
        {
          "internalType": "bool",
          "name": "",
          "type": "bool"
        }
      ],
      "stateMutability": "nonpayable",
      "type": "function"
    }
  ],
  "bytecode": "0x60a060405234801561001057600080fd5b5060405161035d38038061035d8339818101604052810190610032919061005e565b8060ff1660808160ff1660f81b81525050506100ab565b60008151905061005881610094565b92915050565b60006020828403121561007057600080fd5b600061007e84828501610049565b91505092915050565b600060ff82169050919050565b61009d81610087565b81146100a857600080fd5b50565b60805160f81c6102956100c86000396000608501526102956000f3fe608060405234801561001057600080fd5b506004361061002b5760003560e01c8063beed9b5114610030575b600080fd5b61004a600480360381019061004591906100f7565b610060565b6040516100579190610196565b60405180910390f35b60007f9ef8f58acca419d2e95bed9bdae0cb763fe14db033353f206cded59ef3359d5d7f0000000000000000000000000000000000000000000000000000000000000000868686866040516100b99594939291906101b1565b60405180910390a160019050949350505050565b6000813590506100dc81610231565b92915050565b6000813590506100f181610248565b92915050565b6000806000806080858703121561010d57600080fd5b600061011b878288016100e2565b945050602061012c878288016100cd565b935050604061013d878288016100e2565b925050606061014e878288016100cd565b91505092959194509250565b61016381610204565b82525050565b61017281610210565b82525050565b6101818161021a565b82525050565b61019081610224565b82525050565b60006020820190506101ab600083018461015a565b92915050565b600060a0820190506101c66000830188610187565b6101d36020830187610178565b6101e06040830186610169565b6101ed6060830185610178565b6101fa6080830184610169565b9695505050505050565b60008115159050919050565b6000819050919050565b6000819050919050565b600060ff82169050919050565b61023a81610210565b811461024557600080fd5b50565b6102518161021a565b811461025c57600080fd5b5056fea26469706673582212206f4d8595561a66a5ed9001db839437540d9c54c51815df6f1a32e460ba1a9ad864736f6c63430008040033",
  "linkReferences": {},
  "deployedLinkReferences": {}
}