{
  "_format": "hh-sol-artifact-1",
  "contractName": "DataProvider",
  "sourceName": "contracts/DataProvider.sol",
  "abi": [
    {
      "inputs": [],
      "name": "Ymax",
      "outputs": [
        {
          "internalType": "uint256",
          "name": "",
          "type": "uint256"
        }
      ],
      "stateMutability": "view",
      "type": "function"
    },
    {
      "inputs": [],
      "name": "Ymin",
      "outputs": [
        {
          "internalType": "uint256",
          "name": "",
          "type": "uint256"
        }
      ],
      "stateMutability": "view",
      "type": "function"
    },
    {
      "inputs": [
        {
          "internalType": "address",
          "name": "token",
          "type": "address"
        },
        {
          "internalType": "string",
          "name": "name",
          "type": "string"
        },
        {
          "internalType": "string",
          "name": "symbol",
          "type": "string"
        },
        {
          "internalType": "address",
          "name": "proxyContract",
          "type": "address"
        }
      ],
      "name": "addContract",
      "outputs": [],
      "stateMutability": "nonpayable",
      "type": "function"
    },
    {
      "inputs": [
        {
          "internalType": "contract IERC20",
          "name": "token",
          "type": "address"
        }
      ],
      "name": "getContractAddress",
      "outputs": [
        {
          "internalType": "address",
          "name": "",
          "type": "address"
        }
      ],
      "stateMutability": "view",
      "type": "function"
    },
    {
      "inputs": [],
      "name": "getContracts",
      "outputs": [
        {
          "components": [
            {
              "internalType": "address",
              "name": "addr",
              "type": "address"
            },
            {
              "internalType": "string",
              "name": "name",
              "type": "string"
            },
            {
              "internalType": "string",
              "name": "symbol",
              "type": "string"
            },
            {
              "internalType": "address",
              "name": "proxy",
              "type": "address"
            }
          ],
          "internalType": "struct DataProvider.Contract[]",
          "name": "",
          "type": "tuple[]"
        }
      ],
      "stateMutability": "view",
      "type": "function"
    },
    {
      "inputs": [
        {
          "internalType": "address",
          "name": "addr",
          "type": "address"
        },
        {
          "internalType": "uint256",
          "name": "amount",
          "type": "uint256"
        }
      ],
      "name": "getInterestPaidStatus",
      "outputs": [
        {
          "internalType": "bool",
          "name": "",
          "type": "bool"
        }
      ],
      "stateMutability": "view",
      "type": "function"
    },
    {
      "inputs": [
        {
          "internalType": "address",
          "name": "aggregatorAddress",
          "type": "address"
        }
      ],
      "name": "getThePrice",
      "outputs": [
        {
          "internalType": "int256",
          "name": "",
          "type": "int256"
        }
      ],
      "stateMutability": "view",
      "type": "function"
    },
    {
      "inputs": [
        {
          "internalType": "contract IERC20",
          "name": "token",
          "type": "address"
        }
      ],
      "name": "getTotalLiquidity",
      "outputs": [
        {
          "internalType": "uint256",
          "name": "",
          "type": "uint256"
        }
      ],
      "stateMutability": "view",
      "type": "function"
    },
    {
      "inputs": [
        {
          "internalType": "contract IERC20",
          "name": "token",
          "type": "address"
        }
      ],
      "name": "getUsedLiquidity",
      "outputs": [
        {
          "internalType": "uint256",
          "name": "",
          "type": "uint256"
        }
      ],
      "stateMutability": "view",
      "type": "function"
    },
    {
      "inputs": [
        {
          "internalType": "address",
          "name": "user",
          "type": "address"
        },
        {
          "internalType": "address",
          "name": "contractAddr",
          "type": "address"
        }
      ],
      "name": "getUserDetailsForGivenContract",
      "outputs": [
        {
          "components": [
            {
              "internalType": "uint256",
              "name": "liquiidtyAmount",
              "type": "uint256"
            },
            {
              "internalType": "uint256",
              "name": "borrowedAmount",
              "type": "uint256"
            }
          ],
          "internalType": "struct DataProvider.ContractDetails",
          "name": "",
          "type": "tuple"
        }
      ],
      "stateMutability": "view",
      "type": "function"
    },
    {
      "inputs": [
        {
          "internalType": "contract IUNERC20",
          "name": "tokenAddress",
          "type": "address"
        }
      ],
      "name": "getValuesForInterestCalculation",
      "outputs": [
        {
          "internalType": "uint256",
          "name": "",
          "type": "uint256"
        },
        {
          "internalType": "uint256",
          "name": "",
          "type": "uint256"
        },
        {
          "internalType": "uint256",
          "name": "",
          "type": "uint256"
        },
        {
          "internalType": "uint256",
          "name": "",
          "type": "uint256"
        }
      ],
      "stateMutability": "view",
      "type": "function"
    },
    {
      "inputs": [
        {
          "internalType": "uint256",
          "name": "ymax",
          "type": "uint256"
        },
        {
          "internalType": "uint256",
          "name": "ymin",
          "type": "uint256"
        },
        {
          "internalType": "contract ILendersFactory",
          "name": "_core",
          "type": "address"
        }
      ],
      "name": "initialize",
      "outputs": [],
      "stateMutability": "nonpayable",
      "type": "function"
    },
    {
      "inputs": [
        {
          "internalType": "contract IERC20",
          "name": "token",
          "type": "address"
        }
      ],
      "name": "returnProxy",
      "outputs": [
        {
          "internalType": "address",
          "name": "",
          "type": "address"
        }
      ],
      "stateMutability": "view",
      "type": "function"
    },
    {
      "inputs": [
        {
          "internalType": "address",
          "name": "addr",
          "type": "address"
        },
        {
          "internalType": "uint256",
          "name": "amount",
          "type": "uint256"
        },
        {
          "internalType": "bool",
          "name": "status",
          "type": "bool"
        }
      ],
      "name": "setInterestPaidStatus",
      "outputs": [],
      "stateMutability": "nonpayable",
      "type": "function"
    },
    {
      "inputs": [
        {
          "internalType": "address",
          "name": "addrUser",
          "type": "address"
        },
        {
          "internalType": "address",
          "name": "contractAddr",
          "type": "address"
        },
        {
          "internalType": "uint256",
          "name": "amount",
          "type": "uint256"
        }
      ],
      "name": "updateStatusIssueLoan",
      "outputs": [],
      "stateMutability": "nonpayable",
      "type": "function"
    },
    {
      "inputs": [
        {
          "internalType": "address",
          "name": "addrUser",
          "type": "address"
        },
        {
          "internalType": "address",
          "name": "contractAddr",
          "type": "address"
        },
        {
          "internalType": "uint256",
          "name": "amount",
          "type": "uint256"
        }
      ],
      "name": "updateStatusLiquidityDecr",
      "outputs": [],
      "stateMutability": "nonpayable",
      "type": "function"
    },
    {
      "inputs": [
        {
          "internalType": "address",
          "name": "addrUser",
          "type": "address"
        },
        {
          "internalType": "address",
          "name": "contractAddr",
          "type": "address"
        },
        {
          "internalType": "uint256",
          "name": "amount",
          "type": "uint256"
        }
      ],
      "name": "updateStatusLiquidityIncr",
      "outputs": [],
      "stateMutability": "nonpayable",
      "type": "function"
    },
    {
      "inputs": [
        {
          "internalType": "address",
          "name": "addrUser",
          "type": "address"
        },
        {
          "internalType": "address",
          "name": "contractAddr",
          "type": "address"
        },
        {
          "internalType": "uint256",
          "name": "amount",
          "type": "uint256"
        }
      ],
      "name": "updateStatusPaybackLoan",
      "outputs": [],
      "stateMutability": "nonpayable",
      "type": "function"
    }
  ],
  "bytecode": "0x608060405234801561001057600080fd5b50611d21806100206000396000f3fe608060405234801561001057600080fd5b50600436106101165760003560e01c80639de8ef79116100a2578063a6ab36f211610071578063a6ab36f21461032e578063b81e7b0e1461034a578063c3a2a93a14610366578063c936806914610384578063e389e631146103a057610116565b80639de8ef79146102a6578063a327ba7a146102d6578063a45a515e146102f2578063a5332b3a1461031057610116565b8063622bc90e116100e9578063622bc90e146101c75780636d9de969146101f7578063803d9ae014610227578063860e27221461025a5780638cb0a2e81461027657610116565b8063104aedab1461011b5780631f2698681461014b578063249737951461017b57806344a11f6514610197575b600080fd5b610135600480360381019061013091906114a8565b6103bc565b6040516101429190611898565b60405180910390f35b61016560048036038101906101609190611533565b610424565b604051610172919061185b565b60405180910390f35b610195600480360381019061019091906113be565b6104d8565b005b6101b160048036038101906101ac9190611330565b610579565b6040516101be91906118ce565b60405180910390f35b6101e160048036038101906101dc9190611533565b61061d565b6040516101ee919061185b565b60405180910390f35b610211600480360381019061020c9190611533565b6106d6565b60405161021e9190611924565b60405180910390f35b610241600480360381019061023c919061155c565b6107e0565b604051610251949392919061193f565b60405180910390f35b610274600480360381019061026f91906113be565b610903565b005b610290600480360381019061028b9190611382565b610992565b60405161029d9190611909565b60405180910390f35b6102c060048036038101906102bb9190611533565b610a3d565b6040516102cd9190611924565b60405180910390f35b6102f060048036038101906102eb91906113be565b610b47565b005b6102fa610be8565b6040516103079190611924565b60405180910390f35b610318610bee565b6040516103259190611924565b60405180910390f35b610348600480360381019061034391906115ae565b610bf4565b005b610364600480360381019061035f91906114e4565b610c48565b005b61036e610cb5565b60405161037b9190611876565b60405180910390f35b61039e600480360381019061039991906113be565b610ee4565b005b6103ba60048036038101906103b5919061140d565b610f85565b005b6000600260008473ffffffffffffffffffffffffffffffffffffffff1673ffffffffffffffffffffffffffffffffffffffff168152602001908152602001600020600083815260200190815260200160002060009054906101000a900460ff16905092915050565b6000600660009054906101000a900473ffffffffffffffffffffffffffffffffffffffff1673ffffffffffffffffffffffffffffffffffffffff1663255ef6cc836040518263ffffffff1660e01b815260040161048191906118b3565b60206040518083038186803b15801561049957600080fd5b505afa1580156104ad573d6000803e3d6000fd5b505050506040513d601f19601f820116820180604052508101906104d19190611359565b9050919050565b6000600560008573ffffffffffffffffffffffffffffffffffffffff1673ffffffffffffffffffffffffffffffffffffffff16815260200190815260200160002060008473ffffffffffffffffffffffffffffffffffffffff1673ffffffffffffffffffffffffffffffffffffffff16815260200190815260200160002090508181600101600082825461056c9190611a40565b9250508190555050505050565b60008082905060008060008060008573ffffffffffffffffffffffffffffffffffffffff1663feaf968c6040518163ffffffff1660e01b815260040160a06040518083038186803b1580156105cd57600080fd5b505afa1580156105e1573d6000803e3d6000fd5b505050506040513d601f19601f8201168201806040525081019061060591906115fd565b94509450945094509450839650505050505050919050565b600080600660009054906101000a900473ffffffffffffffffffffffffffffffffffffffff1673ffffffffffffffffffffffffffffffffffffffff1663255ef6cc846040518263ffffffff1660e01b815260040161067b91906118b3565b60206040518083038186803b15801561069357600080fd5b505afa1580156106a7573d6000803e3d6000fd5b505050506040513d601f19601f820116820180604052508101906106cb9190611359565b905080915050919050565b6000806106e283610424565b9050600073ffffffffffffffffffffffffffffffffffffffff168173ffffffffffffffffffffffffffffffffffffffff161415610754576040517f08c379a000000000000000000000000000000000000000000000000000000000815260040161074b906118e9565b60405180910390fd5b60008190508073ffffffffffffffffffffffffffffffffffffffff16633b1c98806040518163ffffffff1660e01b815260040160206040518083038186803b15801561079f57600080fd5b505afa1580156107b3573d6000803e3d6000fd5b505050506040513d601f19601f820116820180604052508101906107d79190611585565b92505050919050565b60008060008060008573ffffffffffffffffffffffffffffffffffffffff16633b1c98806040518163ffffffff1660e01b815260040160206040518083038186803b15801561082e57600080fd5b505afa158015610842573d6000803e3d6000fd5b505050506040513d601f19601f820116820180604052508101906108669190611585565b905060008673ffffffffffffffffffffffffffffffffffffffff166335c7e9256040518163ffffffff1660e01b815260040160206040518083038186803b1580156108b057600080fd5b505afa1580156108c4573d6000803e3d6000fd5b505050506040513d601f19601f820116820180604052508101906108e89190611585565b90506000546001548383955095509550955050509193509193565b6000600560008573ffffffffffffffffffffffffffffffffffffffff1673ffffffffffffffffffffffffffffffffffffffff16815260200190815260200160002060008473ffffffffffffffffffffffffffffffffffffffff1673ffffffffffffffffffffffffffffffffffffffff168152602001908152602001600020905081816001018190555050505050565b61099a611157565b600560008473ffffffffffffffffffffffffffffffffffffffff1673ffffffffffffffffffffffffffffffffffffffff16815260200190815260200160002060008373ffffffffffffffffffffffffffffffffffffffff1673ffffffffffffffffffffffffffffffffffffffff16815260200190815260200160002060405180604001604052908160008201548152602001600182015481525050905092915050565b600080610a4983610424565b9050600073ffffffffffffffffffffffffffffffffffffffff168173ffffffffffffffffffffffffffffffffffffffff161415610abb576040517f08c379a0000000000000000000000000000000000000000000000000000000008152600401610ab2906118e9565b60405180910390fd5b60008190508073ffffffffffffffffffffffffffffffffffffffff166335c7e9256040518163ffffffff1660e01b815260040160206040518083038186803b158015610b0657600080fd5b505afa158015610b1a573d6000803e3d6000fd5b505050506040513d601f19601f82011682018060405250810190610b3e9190611585565b92505050919050565b6000600560008573ffffffffffffffffffffffffffffffffffffffff1673ffffffffffffffffffffffffffffffffffffffff16815260200190815260200160002060008473ffffffffffffffffffffffffffffffffffffffff1673ffffffffffffffffffffffffffffffffffffffff168152602001908152602001600020905081816000016000828254610bdb9190611a40565b9250508190555050505050565b60005481565b60015481565b826000819055508160018190555080600660006101000a81548173ffffffffffffffffffffffffffffffffffffffff021916908373ffffffffffffffffffffffffffffffffffffffff160217905550505050565b80600260008573ffffffffffffffffffffffffffffffffffffffff1673ffffffffffffffffffffffffffffffffffffffff168152602001908152602001600020600084815260200190815260200160002060006101000a81548160ff021916908315150217905550505050565b60606004805480602002602001604051908101604052809291908181526020016000905b82821015610edb57838290600052602060002090600402016040518060800160405290816000820160009054906101000a900473ffffffffffffffffffffffffffffffffffffffff1673ffffffffffffffffffffffffffffffffffffffff1673ffffffffffffffffffffffffffffffffffffffff168152602001600182018054610d6290611b69565b80601f0160208091040260200160405190810160405280929190818152602001828054610d8e90611b69565b8015610ddb5780601f10610db057610100808354040283529160200191610ddb565b820191906000526020600020905b815481529060010190602001808311610dbe57829003601f168201915b50505050508152602001600282018054610df490611b69565b80601f0160208091040260200160405190810160405280929190818152602001828054610e2090611b69565b8015610e6d5780601f10610e4257610100808354040283529160200191610e6d565b820191906000526020600020905b815481529060010190602001808311610e5057829003601f168201915b505050505081526020016003820160009054906101000a900473ffffffffffffffffffffffffffffffffffffffff1673ffffffffffffffffffffffffffffffffffffffff1673ffffffffffffffffffffffffffffffffffffffff168152505081526020019060010190610cd9565b50505050905090565b6000600560008573ffffffffffffffffffffffffffffffffffffffff1673ffffffffffffffffffffffffffffffffffffffff16815260200190815260200160002060008473ffffffffffffffffffffffffffffffffffffffff1673ffffffffffffffffffffffffffffffffffffffff168152602001908152602001600020905081816000016000828254610f7891906119ea565b9250508190555050505050565b600460405180608001604052808873ffffffffffffffffffffffffffffffffffffffff16815260200187878080601f016020809104026020016040519081016040528093929190818152602001838380828437600081840152601f19601f82011690508083019250505050505050815260200185858080601f016020809104026020016040519081016040528093929190818152602001838380828437600081840152601f19601f8201169050808301925050505050505081526020018373ffffffffffffffffffffffffffffffffffffffff16815250908060018154018082558091505060019003906000526020600020906004020160009091909190915060008201518160000160006101000a81548173ffffffffffffffffffffffffffffffffffffffff021916908373ffffffffffffffffffffffffffffffffffffffff16021790555060208201518160010190805190602001906110e8929190611171565b506040820151816002019080519060200190611105929190611171565b5060608201518160030160006101000a81548173ffffffffffffffffffffffffffffffffffffffff021916908373ffffffffffffffffffffffffffffffffffffffff1602179055505050505050505050565b604051806040016040528060008152602001600081525090565b82805461117d90611b69565b90600052602060002090601f01602090048101928261119f57600085556111e6565b82601f106111b857805160ff19168380011785556111e6565b828001600101855582156111e6579182015b828111156111e55782518255916020019190600101906111ca565b5b5090506111f391906111f7565b5090565b5b808211156112105760008160009055506001016111f8565b5090565b60008135905061122381611c33565b92915050565b60008151905061123881611c33565b92915050565b60008135905061124d81611c4a565b92915050565b60008135905061126281611c61565b92915050565b60008135905061127781611c78565b92915050565b60008135905061128c81611c8f565b92915050565b6000815190506112a181611ca6565b92915050565b60008083601f8401126112b957600080fd5b8235905067ffffffffffffffff8111156112d257600080fd5b6020830191508360018202830111156112ea57600080fd5b9250929050565b60008135905061130081611cbd565b92915050565b60008151905061131581611cbd565b92915050565b60008151905061132a81611cd4565b92915050565b60006020828403121561134257600080fd5b600061135084828501611214565b91505092915050565b60006020828403121561136b57600080fd5b600061137984828501611229565b91505092915050565b6000806040838503121561139557600080fd5b60006113a385828601611214565b92505060206113b485828601611214565b9150509250929050565b6000806000606084860312156113d357600080fd5b60006113e186828701611214565b93505060206113f286828701611214565b9250506040611403868287016112f1565b9150509250925092565b6000806000806000806080878903121561142657600080fd5b600061143489828a01611214565b965050602087013567ffffffffffffffff81111561145157600080fd5b61145d89828a016112a7565b9550955050604087013567ffffffffffffffff81111561147c57600080fd5b61148889828a016112a7565b9350935050606061149b89828a01611214565b9150509295509295509295565b600080604083850312156114bb57600080fd5b60006114c985828601611214565b92505060206114da858286016112f1565b9150509250929050565b6000806000606084860312156114f957600080fd5b600061150786828701611214565b9350506020611518868287016112f1565b92505060406115298682870161123e565b9150509250925092565b60006020828403121561154557600080fd5b600061155384828501611253565b91505092915050565b60006020828403121561156e57600080fd5b600061157c8482850161127d565b91505092915050565b60006020828403121561159757600080fd5b60006115a584828501611306565b91505092915050565b6000806000606084860312156115c357600080fd5b60006115d1868287016112f1565b93505060206115e2868287016112f1565b92505060406115f386828701611268565b9150509250925092565b600080600080600060a0868803121561161557600080fd5b60006116238882890161131b565b955050602061163488828901611292565b945050604061164588828901611306565b935050606061165688828901611306565b92505060806116678882890161131b565b9150509295509295909350565b600061168083836117d3565b905092915050565b61169181611a74565b82525050565b6116a081611a74565b82525050565b60006116b182611994565b6116bb81856119b7565b9350836020820285016116cd85611984565b8060005b8581101561170957848403895281516116ea8582611674565b94506116f5836119aa565b925060208a019950506001810190506116d1565b50829750879550505050505092915050565b61172481611a86565b82525050565b61173381611b12565b82525050565b61174281611ac8565b82525050565b60006117538261199f565b61175d81856119c8565b935061176d818560208601611b36565b61177681611bf9565b840191505092915050565b600061178e6010836119d9565b915061179982611c0a565b602082019050919050565b6040820160008201516117ba600085018261183d565b5060208201516117cd602085018261183d565b50505050565b60006080830160008301516117eb6000860182611688565b50602083015184820360208601526118038282611748565b9150506040830151848203604086015261181d8282611748565b91505060608301516118326060860182611688565b508091505092915050565b61184681611af2565b82525050565b61185581611af2565b82525050565b60006020820190506118706000830184611697565b92915050565b6000602082019050818103600083015261189081846116a6565b905092915050565b60006020820190506118ad600083018461171b565b92915050565b60006020820190506118c8600083018461172a565b92915050565b60006020820190506118e36000830184611739565b92915050565b6000602082019050818103600083015261190281611781565b9050919050565b600060408201905061191e60008301846117a4565b92915050565b6000602082019050611939600083018461184c565b92915050565b6000608082019050611954600083018761184c565b611961602083018661184c565b61196e604083018561184c565b61197b606083018461184c565b95945050505050565b6000819050602082019050919050565b600081519050919050565b600081519050919050565b6000602082019050919050565b600082825260208201905092915050565b600082825260208201905092915050565b600082825260208201905092915050565b60006119f582611af2565b9150611a0083611af2565b9250827fffffffffffffffffffffffffffffffffffffffffffffffffffffffffffffffff03821115611a3557611a34611b9b565b5b828201905092915050565b6000611a4b82611af2565b9150611a5683611af2565b925082821015611a6957611a68611b9b565b5b828203905092915050565b6000611a7f82611ad2565b9050919050565b60008115159050919050565b6000611a9d82611a74565b9050919050565b6000611aaf82611a74565b9050919050565b6000611ac182611a74565b9050919050565b6000819050919050565b600073ffffffffffffffffffffffffffffffffffffffff82169050919050565b6000819050919050565b600069ffffffffffffffffffff82169050919050565b6000611b1d82611b24565b9050919050565b6000611b2f82611ad2565b9050919050565b60005b83811015611b54578082015181840152602081019050611b39565b83811115611b63576000848401525b50505050565b60006002820490506001821680611b8157607f821691505b60208210811415611b9557611b94611bca565b5b50919050565b7f4e487b7100000000000000000000000000000000000000000000000000000000600052601160045260246000fd5b7f4e487b7100000000000000000000000000000000000000000000000000000000600052602260045260246000fd5b6000601f19601f8301169050919050565b7f4e6f20746f6b656e206372656174656400000000000000000000000000000000600082015250565b611c3c81611a74565b8114611c4757600080fd5b50565b611c5381611a86565b8114611c5e57600080fd5b50565b611c6a81611a92565b8114611c7557600080fd5b50565b611c8181611aa4565b8114611c8c57600080fd5b50565b611c9881611ab6565b8114611ca357600080fd5b50565b611caf81611ac8565b8114611cba57600080fd5b50565b611cc681611af2565b8114611cd157600080fd5b50565b611cdd81611afc565b8114611ce857600080fd5b5056fea26469706673582212201f297105b62894b40985ec086a14bc8dd156063fa80cd6bc7be880ae90245de664736f6c63430008040033",
  "linkReferences": {},
  "deployedLinkReferences": {}
}