{
  "_format": "hh-sol-artifact-1",
  "contractName": "InterestRateStatergy",
  "sourceName": "contracts/InterestRate.sol",
  "abi": [
    {
      "inputs": [
        {
          "internalType": "contract IERC20",
          "name": "token",
          "type": "address"
        },
        {
          "internalType": "uint256",
          "name": "amount",
          "type": "uint256"
        },
        {
          "internalType": "uint256",
          "name": "numberOfDays",
          "type": "uint256"
        }
      ],
      "name": "calculatePaymentAmount",
      "outputs": [
        {
          "internalType": "uint256",
          "name": "",
          "type": "uint256"
        },
        {
          "internalType": "uint256",
          "name": "",
          "type": "uint256"
        }
      ],
      "stateMutability": "view",
      "type": "function"
    },
    {
      "inputs": [
        {
          "internalType": "contract IDataProvider",
          "name": "addr",
          "type": "address"
        },
        {
          "internalType": "uint256",
          "name": "_securityPercentage",
          "type": "uint256"
        }
      ],
      "name": "initialize",
      "outputs": [],
      "stateMutability": "nonpayable",
      "type": "function"
    }
  ],
  "bytecode": "0x608060405234801561001057600080fd5b50610c67806100206000396000f3fe608060405234801561001057600080fd5b50600436106100365760003560e01c8063bdba17561461003b578063cd6dc6871461006c575b600080fd5b610055600480360381019061005091906107c1565b610088565b604051610063929190610931565b60405180910390f35b61008660048036038101906100819190610785565b610166565b005b60008060008060009054906101000a900473ffffffffffffffffffffffffffffffffffffffff1673ffffffffffffffffffffffffffffffffffffffff1663622bc90e876040518263ffffffff1660e01b81526004016100e791906108d9565b60206040518083038186803b1580156100ff57600080fd5b505afa158015610113573d6000803e3d6000fd5b505050506040513d601f19601f82011682018060405250810190610137919061075c565b9050600061014586836101b1565b9050600061015387876103b0565b9050818194509450505050935093915050565b816000806101000a81548173ffffffffffffffffffffffffffffffffffffffff021916908373ffffffffffffffffffffffffffffffffffffffff160217905550806001819055505050565b60008060008060008060009054906101000a900473ffffffffffffffffffffffffffffffffffffffff1673ffffffffffffffffffffffffffffffffffffffff1663803d9ae0876040518263ffffffff1660e01b815260040161021391906108f4565b60806040518083038186803b15801561022b57600080fd5b505afa15801561023f573d6000803e3d6000fd5b505050506040513d601f19601f820116820180604052508101906102639190610810565b93509350935093506000610292826102848a866103f490919063ffffffff16565b61040a90919063ffffffff16565b905060006102a9858761058690919063ffffffff16565b9050600a670de0b6b3a76400006102c091906109cc565b82101561031b57610314670de0b6b3a764000060646102df91906109fd565b610306670de0b6b3a7640000600a6102f791906109fd565b8461059c90919063ffffffff16565b61040a90919063ffffffff16565b905061036b565b610368670de0b6b3a7640000606461033391906109fd565b61035a670de0b6b3a7640000605061034b91906109fd565b8461059c90919063ffffffff16565b61040a90919063ffffffff16565b90505b6000670de0b6b3a76400008661038191906109fd565b61039484846105b290919063ffffffff16565b61039e9190610976565b90508097505050505050505092915050565b60006103ec60646103de846103d06001548861059c90919063ffffffff16565b61059c90919063ffffffff16565b6106dd90919063ffffffff16565b905092915050565b600081836104029190610976565b905092915050565b6000808214156040518060400160405280600281526020017f353000000000000000000000000000000000000000000000000000000000000081525090610487576040517f08c379a000000000000000000000000000000000000000000000000000000000815260040161047e919061090f565b60405180910390fd5b50600060028361049791906109cc565b9050670de0b6b3a7640000817fffffffffffffffffffffffffffffffffffffffffffffffffffffffffffffffff6104ce9190610a57565b6104d891906109cc565b8411156040518060400160405280600281526020017f343800000000000000000000000000000000000000000000000000000000000081525090610552576040517f08c379a0000000000000000000000000000000000000000000000000000000008152600401610549919061090f565b60405180910390fd5b508281670de0b6b3a76400008661056991906109fd565b6105739190610976565b61057d91906109cc565b91505092915050565b600081836105949190610a57565b905092915050565b600081836105aa91906109fd565b905092915050565b6000808314806105c25750600082145b156105d057600090506106d7565b816002670de0b6b3a76400006105e691906109cc565b7fffffffffffffffffffffffffffffffffffffffffffffffffffffffffffffffff6106119190610a57565b61061b91906109cc565b8311156040518060400160405280600281526020017f343800000000000000000000000000000000000000000000000000000000000081525090610695576040517f08c379a000000000000000000000000000000000000000000000000000000000815260040161068c919061090f565b60405180910390fd5b50670de0b6b3a76400006002670de0b6b3a76400006106b491906109cc565b83856106c091906109fd565b6106ca9190610976565b6106d491906109cc565b90505b92915050565b600081836106eb91906109cc565b905092915050565b60008151905061070281610bd5565b92915050565b60008135905061071781610bec565b92915050565b60008135905061072c81610c03565b92915050565b60008135905061074181610c1a565b92915050565b60008151905061075681610c1a565b92915050565b60006020828403121561076e57600080fd5b600061077c848285016106f3565b91505092915050565b6000806040838503121561079857600080fd5b60006107a685828601610708565b92505060206107b785828601610732565b9150509250929050565b6000806000606084860312156107d657600080fd5b60006107e48682870161071d565b93505060206107f586828701610732565b925050604061080686828701610732565b9150509250925092565b6000806000806080858703121561082657600080fd5b600061083487828801610747565b945050602061084587828801610747565b935050604061085687828801610747565b925050606061086787828801610747565b91505092959194509250565b61087c81610aeb565b82525050565b61088b81610b0f565b82525050565b600061089c8261095a565b6108a68185610965565b93506108b6818560208601610b33565b6108bf81610bc4565b840191505092915050565b6108d381610ae1565b82525050565b60006020820190506108ee6000830184610873565b92915050565b60006020820190506109096000830184610882565b92915050565b600060208201905081810360008301526109298184610891565b905092915050565b600060408201905061094660008301856108ca565b61095360208301846108ca565b9392505050565b600081519050919050565b600082825260208201905092915050565b600061098182610ae1565b915061098c83610ae1565b9250827fffffffffffffffffffffffffffffffffffffffffffffffffffffffffffffffff038211156109c1576109c0610b66565b5b828201905092915050565b60006109d782610ae1565b91506109e283610ae1565b9250826109f2576109f1610b95565b5b828204905092915050565b6000610a0882610ae1565b9150610a1383610ae1565b9250817fffffffffffffffffffffffffffffffffffffffffffffffffffffffffffffffff0483118215151615610a4c57610a4b610b66565b5b828202905092915050565b6000610a6282610ae1565b9150610a6d83610ae1565b925082821015610a8057610a7f610b66565b5b828203905092915050565b6000610a9682610ac1565b9050919050565b6000610aa882610a8b565b9050919050565b6000610aba82610a8b565b9050919050565b600073ffffffffffffffffffffffffffffffffffffffff82169050919050565b6000819050919050565b6000610af682610afd565b9050919050565b6000610b0882610ac1565b9050919050565b6000610b1a82610b21565b9050919050565b6000610b2c82610ac1565b9050919050565b60005b83811015610b51578082015181840152602081019050610b36565b83811115610b60576000848401525b50505050565b7f4e487b7100000000000000000000000000000000000000000000000000000000600052601160045260246000fd5b7f4e487b7100000000000000000000000000000000000000000000000000000000600052601260045260246000fd5b6000601f19601f8301169050919050565b610bde81610a8b565b8114610be957600080fd5b50565b610bf581610a9d565b8114610c0057600080fd5b50565b610c0c81610aaf565b8114610c1757600080fd5b50565b610c2381610ae1565b8114610c2e57600080fd5b5056fea26469706673582212205c691ec344bad55da8edab06395f46c244cccb77810b0fc0c7b5a6c728b06d9364736f6c63430008040033",
  "linkReferences": {},
  "deployedLinkReferences": {}
}