{
  "_format": "hh-sol-artifact-1",
  "contractName": "VRFConsumer",
  "sourceName": "@chainlink/contracts/src/v0.8/tests/VRFConsumer.sol",
  "abi": [
    {
      "inputs": [
        {
          "internalType": "address",
          "name": "_vrfCoordinator",
          "type": "address"
        },
        {
          "internalType": "address",
          "name": "_link",
          "type": "address"
        }
      ],
      "stateMutability": "nonpayable",
      "type": "constructor"
    },
    {
      "inputs": [],
      "name": "randomnessOutput",
      "outputs": [
        {
          "internalType": "uint256",
          "name": "",
          "type": "uint256"
        }
      ],
      "stateMutability": "view",
      "type": "function"
    },
    {
      "inputs": [
        {
          "internalType": "bytes32",
          "name": "requestId",
          "type": "bytes32"
        },
        {
          "internalType": "uint256",
          "name": "randomness",
          "type": "uint256"
        }
      ],
      "name": "rawFulfillRandomness",
      "outputs": [],
      "stateMutability": "nonpayable",
      "type": "function"
    },
    {
      "inputs": [],
      "name": "requestId",
      "outputs": [
        {
          "internalType": "bytes32",
          "name": "",
          "type": "bytes32"
        }
      ],
      "stateMutability": "view",
      "type": "function"
    },
    {
      "inputs": [
        {
          "internalType": "bytes32",
          "name": "_keyHash",
          "type": "bytes32"
        },
        {
          "internalType": "uint256",
          "name": "_fee",
          "type": "uint256"
        }
      ],
      "name": "testRequestRandomness",
      "outputs": [
        {
          "internalType": "bytes32",
          "name": "requestId",
          "type": "bytes32"
        }
      ],
      "stateMutability": "nonpayable",
      "type": "function"
    }
  ],
  "bytecode": "0x60c060405234801561001057600080fd5b50604051610973380380610973833981810160405281019061003291906100c0565b81818173ffffffffffffffffffffffffffffffffffffffff1660a08173ffffffffffffffffffffffffffffffffffffffff1660601b815250508073ffffffffffffffffffffffffffffffffffffffff1660808173ffffffffffffffffffffffffffffffffffffffff1660601b8152505050505050610145565b6000815190506100ba8161012e565b92915050565b600080604083850312156100d357600080fd5b60006100e1858286016100ab565b92505060206100f2858286016100ab565b9150509250929050565b60006101078261010e565b9050919050565b600073ffffffffffffffffffffffffffffffffffffffff82169050919050565b610137816100fc565b811461014257600080fd5b50565b60805160601c60a05160601c6107fd6101766000396000818160fa01526101d40152600061019801526107fd6000f3fe608060405234801561001057600080fd5b506004361061004b5760003560e01c80626d6cae146100505780632f47fd861461006e578063866ee7481461008c57806394985ddd146100bc575b600080fd5b6100586100d8565b6040516100659190610539565b60405180910390f35b6100766100de565b60405161008391906105e2565b60405180910390f35b6100a660048036038101906100a191906103dc565b6100e4565b6040516100b39190610539565b60405180910390f35b6100d660048036038101906100d191906103dc565b6100f8565b005b60025481565b60015481565b60006100f08383610194565b905092915050565b7f000000000000000000000000000000000000000000000000000000000000000073ffffffffffffffffffffffffffffffffffffffff163373ffffffffffffffffffffffffffffffffffffffff1614610186576040517f08c379a000000000000000000000000000000000000000000000000000000000815260040161017d906105c2565b60405180910390fd5b61019082826102f3565b5050565b60007f000000000000000000000000000000000000000000000000000000000000000073ffffffffffffffffffffffffffffffffffffffff16634000aea07f000000000000000000000000000000000000000000000000000000000000000084866000604051602001610208929190610554565b6040516020818303038152906040526040518463ffffffff1660e01b8152600401610235939291906104fb565b602060405180830381600087803b15801561024f57600080fd5b505af1158015610263573d6000803e3d6000fd5b505050506040513d601f19601f8201168201806040525081019061028791906103b3565b5060006102a98460003060008089815260200190815260200160002054610305565b90506001600080868152602001908152602001600020546102ca919061062a565b600080868152602001908152602001600020819055506102ea8482610341565b91505092915050565b80600181905550816002819055505050565b60008484848460405160200161031e949392919061057d565b6040516020818303038152906040528051906020012060001c9050949350505050565b600082826040516020016103569291906104cf565b60405160208183030381529060405280519060200120905092915050565b60008151905061038381610782565b92915050565b60008135905061039881610799565b92915050565b6000813590506103ad816107b0565b92915050565b6000602082840312156103c557600080fd5b60006103d384828501610374565b91505092915050565b600080604083850312156103ef57600080fd5b60006103fd85828601610389565b925050602061040e8582860161039e565b9150509250929050565b61042181610680565b82525050565b6104308161069e565b82525050565b6104476104428261069e565b610705565b82525050565b6000610458826105fd565b6104628185610608565b93506104728185602086016106d2565b61047b81610748565b840191505092915050565b6000610493601f83610619565b915061049e82610759565b602082019050919050565b6104b2816106c8565b82525050565b6104c96104c4826106c8565b61070f565b82525050565b60006104db8285610436565b6020820191506104eb82846104b8565b6020820191508190509392505050565b60006060820190506105106000830186610418565b61051d60208301856104a9565b818103604083015261052f818461044d565b9050949350505050565b600060208201905061054e6000830184610427565b92915050565b60006040820190506105696000830185610427565b61057660208301846104a9565b9392505050565b60006080820190506105926000830187610427565b61059f60208301866104a9565b6105ac6040830185610418565b6105b960608301846104a9565b95945050505050565b600060208201905081810360008301526105db81610486565b9050919050565b60006020820190506105f760008301846104a9565b92915050565b600081519050919050565b600082825260208201905092915050565b600082825260208201905092915050565b6000610635826106c8565b9150610640836106c8565b9250827fffffffffffffffffffffffffffffffffffffffffffffffffffffffffffffffff0382111561067557610674610719565b5b828201905092915050565b600061068b826106a8565b9050919050565b60008115159050919050565b6000819050919050565b600073ffffffffffffffffffffffffffffffffffffffff82169050919050565b6000819050919050565b60005b838110156106f05780820151818401526020810190506106d5565b838111156106ff576000848401525b50505050565b6000819050919050565b6000819050919050565b7f4e487b7100000000000000000000000000000000000000000000000000000000600052601160045260246000fd5b6000601f19601f8301169050919050565b7f4f6e6c7920565246436f6f7264696e61746f722063616e2066756c66696c6c00600082015250565b61078b81610692565b811461079657600080fd5b50565b6107a28161069e565b81146107ad57600080fd5b50565b6107b9816106c8565b81146107c457600080fd5b5056fea2646970667358221220aaa406a58fd172d40b9a996c00cfc4a6b7d70d2095483c72a106c3f9604307d564736f6c63430008040033",
  "linkReferences": {},
  "deployedLinkReferences": {}
}