{
  "_format": "hh-sol-artifact-1",
  "contractName": "LendersFactory",
  "sourceName": "contracts/LendersFactory.sol",
  "abi": [
    {
      "inputs": [
        {
          "internalType": "address",
          "name": "_implementation",
          "type": "address"
        },
        {
          "internalType": "address",
          "name": "_tokenImplementation",
          "type": "address"
        },
        {
          "internalType": "contract IDataProvider",
          "name": "_dataProvider",
          "type": "address"
        },
        {
          "internalType": "contract IInterestRate",
          "name": "_interestProvider",
          "type": "address"
        }
      ],
      "stateMutability": "nonpayable",
      "type": "constructor"
    },
    {
      "anonymous": false,
      "inputs": [
        {
          "indexed": true,
          "internalType": "address",
          "name": "sender",
          "type": "address"
        },
        {
          "indexed": true,
          "internalType": "contract IERC20",
          "name": "token",
          "type": "address"
        },
        {
          "indexed": false,
          "internalType": "uint256",
          "name": "currentTime",
          "type": "uint256"
        },
        {
          "indexed": false,
          "internalType": "uint256",
          "name": "paybackTime",
          "type": "uint256"
        },
        {
          "indexed": false,
          "internalType": "uint256",
          "name": "amount",
          "type": "uint256"
        }
      ],
      "name": "IssueLoan",
      "type": "event"
    },
    {
      "anonymous": false,
      "inputs": [
        {
          "indexed": false,
          "internalType": "address",
          "name": "sender",
          "type": "address"
        },
        {
          "indexed": false,
          "internalType": "contract IERC20",
          "name": "token",
          "type": "address"
        },
        {
          "indexed": false,
          "internalType": "uint256",
          "name": "amount",
          "type": "uint256"
        }
      ],
      "name": "LiquidityAdded",
      "type": "event"
    },
    {
      "anonymous": false,
      "inputs": [
        {
          "indexed": false,
          "internalType": "address",
          "name": "sender",
          "type": "address"
        },
        {
          "indexed": false,
          "internalType": "contract IERC20",
          "name": "token",
          "type": "address"
        },
        {
          "indexed": false,
          "internalType": "uint256",
          "name": "amount",
          "type": "uint256"
        }
      ],
      "name": "LiquidityWithdrawn",
      "type": "event"
    },
    {
      "anonymous": false,
      "inputs": [
        {
          "indexed": false,
          "internalType": "address",
          "name": "sender",
          "type": "address"
        },
        {
          "indexed": false,
          "internalType": "contract IERC20",
          "name": "token",
          "type": "address"
        },
        {
          "indexed": false,
          "internalType": "uint256",
          "name": "amount",
          "type": "uint256"
        },
        {
          "indexed": false,
          "internalType": "uint256",
          "name": "numberOfDays",
          "type": "uint256"
        }
      ],
      "name": "PaidInterest",
      "type": "event"
    },
    {
      "anonymous": false,
      "inputs": [
        {
          "indexed": true,
          "internalType": "address",
          "name": "sender",
          "type": "address"
        },
        {
          "indexed": true,
          "internalType": "contract IERC20",
          "name": "token",
          "type": "address"
        },
        {
          "indexed": false,
          "internalType": "uint256",
          "name": "timeOfPayback",
          "type": "uint256"
        },
        {
          "indexed": false,
          "internalType": "uint256",
          "name": "amount",
          "type": "uint256"
        }
      ],
      "name": "PaybackLoan",
      "type": "event"
    },
    {
      "inputs": [
        {
          "internalType": "uint256",
          "name": "amount",
          "type": "uint256"
        },
        {
          "internalType": "contract IERC20",
          "name": "token",
          "type": "address"
        }
      ],
      "name": "addLiquidity",
      "outputs": [],
      "stateMutability": "nonpayable",
      "type": "function"
    },
    {
      "inputs": [
        {
          "internalType": "contract IERC20",
          "name": "token",
          "type": "address"
        }
      ],
      "name": "balanceSupply",
      "outputs": [
        {
          "internalType": "uint256",
          "name": "",
          "type": "uint256"
        }
      ],
      "stateMutability": "nonpayable",
      "type": "function"
    },
    {
      "inputs": [
        {
          "internalType": "address",
          "name": "token",
          "type": "address"
        },
        {
          "internalType": "string",
          "name": "name",
          "type": "string"
        },
        {
          "internalType": "string",
          "name": "symbol",
          "type": "string"
        }
      ],
      "name": "createLiquidityContract",
      "outputs": [],
      "stateMutability": "nonpayable",
      "type": "function"
    },
    {
      "inputs": [
        {
          "internalType": "contract IERC20",
          "name": "token",
          "type": "address"
        }
      ],
      "name": "getContractAddress",
      "outputs": [
        {
          "internalType": "address",
          "name": "",
          "type": "address"
        }
      ],
      "stateMutability": "view",
      "type": "function"
    },
    {
      "inputs": [
        {
          "internalType": "contract IERC20",
          "name": "token",
          "type": "address"
        },
        {
          "internalType": "uint256",
          "name": "numberOfDays",
          "type": "uint256"
        },
        {
          "internalType": "uint256",
          "name": "amount",
          "type": "uint256"
        }
      ],
      "name": "issueLoan",
      "outputs": [],
      "stateMutability": "nonpayable",
      "type": "function"
    },
    {
      "inputs": [
        {
          "internalType": "contract IERC20",
          "name": "token",
          "type": "address"
        },
        {
          "internalType": "uint256",
          "name": "amount",
          "type": "uint256"
        },
        {
          "internalType": "uint256",
          "name": "numberOfDays",
          "type": "uint256"
        }
      ],
      "name": "payInterest",
      "outputs": [],
      "stateMutability": "payable",
      "type": "function"
    },
    {
      "inputs": [
        {
          "internalType": "contract IERC20",
          "name": "token",
          "type": "address"
        },
        {
          "internalType": "uint256",
          "name": "amount",
          "type": "uint256"
        }
      ],
      "name": "paybackLoan",
      "outputs": [],
      "stateMutability": "nonpayable",
      "type": "function"
    },
    {
      "inputs": [
        {
          "internalType": "contract IERC20",
          "name": "token",
          "type": "address"
        }
      ],
      "name": "returnProxyContract",
      "outputs": [
        {
          "internalType": "address",
          "name": "",
          "type": "address"
        }
      ],
      "stateMutability": "view",
      "type": "function"
    },
    {
      "inputs": [
        {
          "internalType": "uint256",
          "name": "amount",
          "type": "uint256"
        },
        {
          "internalType": "contract IERC20",
          "name": "token",
          "type": "address"
        }
      ],
      "name": "withdrawLiquidity",
      "outputs": [],
      "stateMutability": "nonpayable",
      "type": "function"
    }
  ],
  "bytecode": "0x60806040523480156200001157600080fd5b5060405162002126380380620021268339818101604052810190620000379190620001ca565b836000806101000a81548173ffffffffffffffffffffffffffffffffffffffff021916908373ffffffffffffffffffffffffffffffffffffffff16021790555082600160006101000a81548173ffffffffffffffffffffffffffffffffffffffff021916908373ffffffffffffffffffffffffffffffffffffffff16021790555081600260006101000a81548173ffffffffffffffffffffffffffffffffffffffff021916908373ffffffffffffffffffffffffffffffffffffffff16021790555080600360006101000a81548173ffffffffffffffffffffffffffffffffffffffff021916908373ffffffffffffffffffffffffffffffffffffffff16021790555033600460006101000a81548173ffffffffffffffffffffffffffffffffffffffff021916908373ffffffffffffffffffffffffffffffffffffffff16021790555050505050620002e0565b600081519050620001968162000292565b92915050565b600081519050620001ad81620002ac565b92915050565b600081519050620001c481620002c6565b92915050565b60008060008060808587031215620001e157600080fd5b6000620001f18782880162000185565b9450506020620002048782880162000185565b935050604062000217878288016200019c565b92505060606200022a87828801620001b3565b91505092959194509250565b6000620002438262000272565b9050919050565b6000620002578262000236565b9050919050565b60006200026b8262000236565b9050919050565b600073ffffffffffffffffffffffffffffffffffffffff82169050919050565b6200029d8162000236565b8114620002a957600080fd5b50565b620002b7816200024a565b8114620002c357600080fd5b50565b620002d1816200025e565b8114620002dd57600080fd5b50565b611e3680620002f06000396000f3fe6080604052600436106100865760003560e01c806368fc0c9a1161005957806368fc0c9a1461014a5780637a7cee43146101735780637c82e8091461019c578063c95f9d0e146101c5578063e3c427b6146101ee57610086565b8063255ef6cc1461008b5780634a8987c2146100c8578063547adb7f146100f1578063622bc90e1461010d575b600080fd5b34801561009757600080fd5b506100b260048036038101906100ad91906114e3565b61022b565b6040516100bf919061175f565b60405180910390f35b3480156100d457600080fd5b506100ef60048036038101906100ea9190611431565b610299565b005b61010b60048036038101906101069190611548565b6105ef565b005b34801561011957600080fd5b50610134600480360381019061012f91906114e3565b610844565b604051610141919061175f565b60405180910390f35b34801561015657600080fd5b50610171600480360381019061016c91906115c0565b6108b2565b005b34801561017f57600080fd5b5061019a6004803603810190610195919061150c565b610acc565b005b3480156101a857600080fd5b506101c360048036038101906101be9190611548565b610c43565b005b3480156101d157600080fd5b506101ec60048036038101906101e791906115c0565b610f5d565b005b3480156101fa57600080fd5b50610215600480360381019061021091906114e3565b61120d565b6040516102229190611a49565b60405180910390f35b600080600560008473ffffffffffffffffffffffffffffffffffffffff1673ffffffffffffffffffffffffffffffffffffffff16815260200190815260200160002060009054906101000a900473ffffffffffffffffffffffffffffffffffffffff16905080915050919050565b600073ffffffffffffffffffffffffffffffffffffffff16600560008773ffffffffffffffffffffffffffffffffffffffff1673ffffffffffffffffffffffffffffffffffffffff16815260200190815260200160002060009054906101000a900473ffffffffffffffffffffffffffffffffffffffff1673ffffffffffffffffffffffffffffffffffffffff1614610367576040517f08c379a000000000000000000000000000000000000000000000000000000000815260040161035e90611a09565b60405180910390fd5b600061039260008054906101000a900473ffffffffffffffffffffffffffffffffffffffff166112a9565b9050600081905060006103c6600160009054906101000a900473ffffffffffffffffffffffffffffffffffffffff166112a9565b90508173ffffffffffffffffffffffffffffffffffffffff16633659cfe6826040518263ffffffff1660e01b8152600401610401919061175f565b600060405180830381600087803b15801561041b57600080fd5b505af115801561042f573d6000803e3d6000fd5b5050505060008390508073ffffffffffffffffffffffffffffffffffffffff1663613d25bb8a8a8a8a8a600460009054906101000a900473ffffffffffffffffffffffffffffffffffffffff166040518763ffffffff1660e01b815260040161049d9695949392919061182d565b600060405180830381600087803b1580156104b757600080fd5b505af11580156104cb573d6000803e3d6000fd5b5050505083600560008b73ffffffffffffffffffffffffffffffffffffffff1673ffffffffffffffffffffffffffffffffffffffff16815260200190815260200160002060006101000a81548173ffffffffffffffffffffffffffffffffffffffff021916908373ffffffffffffffffffffffffffffffffffffffff160217905550600260009054906101000a900473ffffffffffffffffffffffffffffffffffffffff1673ffffffffffffffffffffffffffffffffffffffff1663e389e6318a8a8a8a8a8a6040518763ffffffff1660e01b81526004016105b296959493929190611884565b600060405180830381600087803b1580156105cc57600080fd5b505af11580156105e0573d6000803e3d6000fd5b50505050505050505050505050565b600080600360009054906101000a900473ffffffffffffffffffffffffffffffffffffffff1673ffffffffffffffffffffffffffffffffffffffff1663bdba17568686866040518463ffffffff1660e01b815260040161065193929190611972565b6040805180830381600087803b15801561066a57600080fd5b505af115801561067e573d6000803e3d6000fd5b505050506040513d601f19601f820116820180604052508101906106a291906115fc565b9150915080826106b29190611afe565b34146106f3576040517f08c379a00000000000000000000000000000000000000000000000000000000081526004016106ea906119e9565b60405180910390fd5b600260009054906101000a900473ffffffffffffffffffffffffffffffffffffffff1673ffffffffffffffffffffffffffffffffffffffff1663b81e7b0e338660016040518463ffffffff1660e01b815260040161075393929190611904565b600060405180830381600087803b15801561076d57600080fd5b505af1158015610781573d6000803e3d6000fd5b50505050600061079086610844565b90508073ffffffffffffffffffffffffffffffffffffffff166343587dff33846040518363ffffffff1660e01b81526004016107cd9291906118db565b600060405180830381600087803b1580156107e757600080fd5b505af11580156107fb573d6000803e3d6000fd5b505050507fef59795e5bbf3fcbd4e5d831e708cba44a32d645d0ff0762285a837ea9b66cb23387878760405161083494939291906117e8565b60405180910390a1505050505050565b600080600560008473ffffffffffffffffffffffffffffffffffffffff1673ffffffffffffffffffffffffffffffffffffffff16815260200190815260200160002060009054906101000a900473ffffffffffffffffffffffffffffffffffffffff16905080915050919050565b600073ffffffffffffffffffffffffffffffffffffffff16600560008373ffffffffffffffffffffffffffffffffffffffff1673ffffffffffffffffffffffffffffffffffffffff16815260200190815260200160002060009054906101000a900473ffffffffffffffffffffffffffffffffffffffff1673ffffffffffffffffffffffffffffffffffffffff161415610981576040517f08c379a0000000000000000000000000000000000000000000000000000000008152600401610978906119a9565b60405180910390fd5b600061098c82610844565b9050600260009054906101000a900473ffffffffffffffffffffffffffffffffffffffff1673ffffffffffffffffffffffffffffffffffffffff1663a327ba7a3384866040518463ffffffff1660e01b81526004016109ed9392919061177a565b600060405180830381600087803b158015610a0757600080fd5b505af1158015610a1b573d6000803e3d6000fd5b505050508073ffffffffffffffffffffffffffffffffffffffff1663869e0e6084336040518363ffffffff1660e01b8152600401610a5a929190611a64565b600060405180830381600087803b158015610a7457600080fd5b505af1158015610a88573d6000803e3d6000fd5b505050507f83aa598dd3e269af677698c6847b3ba594a67d286a771d01099aafa911a91b64338385604051610abf939291906117b1565b60405180910390a1505050565b6000610ad783610844565b90508073ffffffffffffffffffffffffffffffffffffffff16635e33ceb383336040518363ffffffff1660e01b8152600401610b14929190611a64565b600060405180830381600087803b158015610b2e57600080fd5b505af1158015610b42573d6000803e3d6000fd5b50505050600260009054906101000a900473ffffffffffffffffffffffffffffffffffffffff1673ffffffffffffffffffffffffffffffffffffffff1663249737953385856040518463ffffffff1660e01b8152600401610ba59392919061177a565b600060405180830381600087803b158015610bbf57600080fd5b505af1158015610bd3573d6000803e3d6000fd5b505050508273ffffffffffffffffffffffffffffffffffffffff163373ffffffffffffffffffffffffffffffffffffffff167fb5cbbdfa4cd1ba270b1162d4e74d5a153152295051f9cbd803915015e97604204285604051610c36929190611a8d565b60405180910390a3505050565b6000610c4e84610844565b905060011515600260009054906101000a900473ffffffffffffffffffffffffffffffffffffffff1673ffffffffffffffffffffffffffffffffffffffff1663104aedab33856040518363ffffffff1660e01b8152600401610cb19291906118db565b60206040518083038186803b158015610cc957600080fd5b505afa158015610cdd573d6000803e3d6000fd5b505050506040513d601f19601f82011682018060405250810190610d0191906114ba565b151514610d43576040517f08c379a0000000000000000000000000000000000000000000000000000000008152600401610d3a906119c9565b60405180910390fd5b8073ffffffffffffffffffffffffffffffffffffffff1663cf248fc03385856040518463ffffffff1660e01b8152600401610d809392919061193b565b600060405180830381600087803b158015610d9a57600080fd5b505af1158015610dae573d6000803e3d6000fd5b50505050600260009054906101000a900473ffffffffffffffffffffffffffffffffffffffff1673ffffffffffffffffffffffffffffffffffffffff1663860e27223386856040518463ffffffff1660e01b8152600401610e119392919061177a565b600060405180830381600087803b158015610e2b57600080fd5b505af1158015610e3f573d6000803e3d6000fd5b50505050600260009054906101000a900473ffffffffffffffffffffffffffffffffffffffff1673ffffffffffffffffffffffffffffffffffffffff1663b81e7b0e338460006040518463ffffffff1660e01b8152600401610ea393929190611904565b600060405180830381600087803b158015610ebd57600080fd5b505af1158015610ed1573d6000803e3d6000fd5b505050508373ffffffffffffffffffffffffffffffffffffffff163373ffffffffffffffffffffffffffffffffffffffff167f7e69148b7040949343e119b8729e42ddf8c688ffa22cd260a91024b7920df7d0426201518087610f349190611b54565b42610f3f9190611afe565b86604051610f4f93929190611ab6565b60405180910390a350505050565b600073ffffffffffffffffffffffffffffffffffffffff16600560008373ffffffffffffffffffffffffffffffffffffffff1673ffffffffffffffffffffffffffffffffffffffff16815260200190815260200160002060009054906101000a900473ffffffffffffffffffffffffffffffffffffffff1673ffffffffffffffffffffffffffffffffffffffff16141561102c576040517f08c379a0000000000000000000000000000000000000000000000000000000008152600401611023906119a9565b60405180910390fd5b600061103782610844565b90508173ffffffffffffffffffffffffffffffffffffffff166323b872dd3383866040518463ffffffff1660e01b81526004016110769392919061177a565b602060405180830381600087803b15801561109057600080fd5b505af11580156110a4573d6000803e3d6000fd5b505050506040513d601f19601f820116820180604052508101906110c891906114ba565b5060008190508073ffffffffffffffffffffffffffffffffffffffff1663124fc7e085336040518363ffffffff1660e01b8152600401611109929190611a64565b600060405180830381600087803b15801561112357600080fd5b505af1158015611137573d6000803e3d6000fd5b50505050600260009054906101000a900473ffffffffffffffffffffffffffffffffffffffff1673ffffffffffffffffffffffffffffffffffffffff1663c93680693385876040518463ffffffff1660e01b815260040161119a9392919061177a565b600060405180830381600087803b1580156111b457600080fd5b505af11580156111c8573d6000803e3d6000fd5b505050507f9d278c56ba6dc86a12eefe6b43112bd6e06648eb4ec0b950ee2d783d40e2acb43384866040516111ff939291906117b1565b60405180910390a150505050565b60008061121983610844565b905060008173ffffffffffffffffffffffffffffffffffffffff1663cf7f71f06040518163ffffffff1660e01b8152600401602060405180830381600087803b15801561126557600080fd5b505af1158015611279573d6000803e3d6000fd5b505050506040513d601f19601f8201168201806040525081019061129d9190611597565b90508092505050919050565b60006040517f3d602d80600a3d3981f3363d3d373d3d3d363d7300000000000000000000000081528260601b60148201527f5af43d82803e903d91602b57fd5bf3000000000000000000000000000000000060288201526037816000f0915050600073ffffffffffffffffffffffffffffffffffffffff168173ffffffffffffffffffffffffffffffffffffffff161415611379576040517f08c379a000000000000000000000000000000000000000000000000000000000815260040161137090611a29565b60405180910390fd5b919050565b60008135905061138d81611da4565b92915050565b6000815190506113a281611dbb565b92915050565b6000813590506113b781611dd2565b92915050565b60008083601f8401126113cf57600080fd5b8235905067ffffffffffffffff8111156113e857600080fd5b60208301915083600182028301111561140057600080fd5b9250929050565b60008135905061141681611de9565b92915050565b60008151905061142b81611de9565b92915050565b60008060008060006060868803121561144957600080fd5b60006114578882890161137e565b955050602086013567ffffffffffffffff81111561147457600080fd5b611480888289016113bd565b9450945050604086013567ffffffffffffffff81111561149f57600080fd5b6114ab888289016113bd565b92509250509295509295909350565b6000602082840312156114cc57600080fd5b60006114da84828501611393565b91505092915050565b6000602082840312156114f557600080fd5b6000611503848285016113a8565b91505092915050565b6000806040838503121561151f57600080fd5b600061152d858286016113a8565b925050602061153e85828601611407565b9150509250929050565b60008060006060848603121561155d57600080fd5b600061156b868287016113a8565b935050602061157c86828701611407565b925050604061158d86828701611407565b9150509250925092565b6000602082840312156115a957600080fd5b60006115b78482850161141c565b91505092915050565b600080604083850312156115d357600080fd5b60006115e185828601611407565b92505060206115f2858286016113a8565b9150509250929050565b6000806040838503121561160f57600080fd5b600061161d8582860161141c565b925050602061162e8582860161141c565b9150509250929050565b61164181611c08565b82525050565b61165081611bae565b82525050565b61165f81611bc0565b82525050565b61166e81611c1a565b82525050565b60006116808385611aed565b935061168d838584611c62565b61169683611ca0565b840190509392505050565b60006116ae601c83611aed565b91506116b982611cb1565b602082019050919050565b60006116d1601183611aed565b91506116dc82611cda565b602082019050919050565b60006116f4602883611aed565b91506116ff82611d03565b604082019050919050565b6000611717600f83611aed565b915061172282611d52565b602082019050919050565b600061173a601683611aed565b915061174582611d7b565b602082019050919050565b61175981611bfe565b82525050565b60006020820190506117746000830184611647565b92915050565b600060608201905061178f6000830186611647565b61179c6020830185611647565b6117a96040830184611750565b949350505050565b60006060820190506117c66000830186611647565b6117d36020830185611665565b6117e06040830184611750565b949350505050565b60006080820190506117fd6000830187611647565b61180a6020830186611665565b6118176040830185611750565b6118246060830184611750565b95945050505050565b60006080820190506118426000830189611647565b8181036020830152611855818789611674565b9050818103604083015261186a818587611674565b90506118796060830184611647565b979650505050505050565b60006080820190506118996000830189611647565b81810360208301526118ac818789611674565b905081810360408301526118c1818587611674565b90506118d06060830184611638565b979650505050505050565b60006040820190506118f06000830185611647565b6118fd6020830184611750565b9392505050565b60006060820190506119196000830186611647565b6119266020830185611750565b6119336040830184611656565b949350505050565b60006060820190506119506000830186611647565b61195d6020830185611750565b61196a6040830184611750565b949350505050565b60006060820190506119876000830186611665565b6119946020830185611750565b6119a16040830184611750565b949350505050565b600060208201905081810360008301526119c2816116a1565b9050919050565b600060208201905081810360008301526119e2816116c4565b9050919050565b60006020820190508181036000830152611a02816116e7565b9050919050565b60006020820190508181036000830152611a228161170a565b9050919050565b60006020820190508181036000830152611a428161172d565b9050919050565b6000602082019050611a5e6000830184611750565b92915050565b6000604082019050611a796000830185611750565b611a866020830184611647565b9392505050565b6000604082019050611aa26000830185611750565b611aaf6020830184611750565b9392505050565b6000606082019050611acb6000830186611750565b611ad86020830185611750565b611ae56040830184611750565b949350505050565b600082825260208201905092915050565b6000611b0982611bfe565b9150611b1483611bfe565b9250827fffffffffffffffffffffffffffffffffffffffffffffffffffffffffffffffff03821115611b4957611b48611c71565b5b828201905092915050565b6000611b5f82611bfe565b9150611b6a83611bfe565b9250817fffffffffffffffffffffffffffffffffffffffffffffffffffffffffffffffff0483118215151615611ba357611ba2611c71565b5b828202905092915050565b6000611bb982611bde565b9050919050565b60008115159050919050565b6000611bd782611bae565b9050919050565b600073ffffffffffffffffffffffffffffffffffffffff82169050919050565b6000819050919050565b6000611c1382611c3e565b9050919050565b6000611c2582611c2c565b9050919050565b6000611c3782611bde565b9050919050565b6000611c4982611c50565b9050919050565b6000611c5b82611bde565b9050919050565b82818337600083830152505050565b7f4e487b7100000000000000000000000000000000000000000000000000000000600052601160045260246000fd5b6000601f19601f8301169050919050565b7f546f6b656e20436f6e747261637420446f65736e277420657869737400000000600082015250565b7f496e746572657374204e6f742050616964000000000000000000000000000000600082015250565b7f4e6f742074686520656e7469726520696e74657265737420616d6f756e74206460008201527f65706f7369746564000000000000000000000000000000000000000000000000602082015250565b7f616c726561647920637265617465640000000000000000000000000000000000600082015250565b7f455243313136373a20637265617465206661696c656400000000000000000000600082015250565b611dad81611bae565b8114611db857600080fd5b50565b611dc481611bc0565b8114611dcf57600080fd5b50565b611ddb81611bcc565b8114611de657600080fd5b50565b611df281611bfe565b8114611dfd57600080fd5b5056fea264697066735822122086d0ca1b251dc42654c13f285fc499b6e341d5daaed14ee95c30f6a04d3e59b764736f6c63430008040033",
  "linkReferences": {},
  "deployedLinkReferences": {}
}